{
    "_format": "hh-sol-artifact-1",
    "contractName": "Blockparty",
    "sourceName": "contracts/Blockparty.sol",
    "abi": [
        {
            "anonymous": false,
            "inputs": [
                {
                    "indexed": false,
                    "internalType": "string",
                    "name": "tag",
                    "type": "string"
                },
                {
                    "indexed": false,
                    "internalType": "uint256",
                    "name": "fee",
                    "type": "uint256"
                },
                {
                    "indexed": false,
                    "internalType": "uint256",
                    "name": "members",
                    "type": "uint256"
                }
            ],
            "name": "HostCreated",
            "type": "event"
        },
        {
            "anonymous": false,
            "inputs": [
                {
                    "indexed": false,
                    "internalType": "uint256",
                    "name": "id",
                    "type": "uint256"
                },
                {
                    "indexed": false,
                    "internalType": "uint256",
                    "name": "fee",
                    "type": "uint256"
                },
                {
                    "indexed": false,
                    "internalType": "address payable",
                    "name": "host",
                    "type": "address"
                }
            ],
            "name": "MembershipCreated",
            "type": "event"
        },
        {
            "inputs": [],
            "name": "announcementCount",
            "outputs": [
                {
                    "internalType": "uint256",
                    "name": "",
                    "type": "uint256"
                }
            ],
            "stateMutability": "view",
            "type": "function"
        },
        {
            "inputs": [
                {
                    "internalType": "string",
                    "name": "_tag",
                    "type": "string"
                },
                {
                    "internalType": "uint256",
                    "name": "_fee",
                    "type": "uint256"
                }
            ],
            "name": "becomeHost",
            "outputs": [],
            "stateMutability": "nonpayable",
            "type": "function"
        },
        {
            "inputs": [
                {
                    "internalType": "uint256",
                    "name": "_fee",
                    "type": "uint256"
                }
            ],
            "name": "changeFee",
            "outputs": [],
            "stateMutability": "nonpayable",
            "type": "function"
        },
        {
            "inputs": [
                {
                    "internalType": "string",
                    "name": "_tag",
                    "type": "string"
                }
            ],
            "name": "changeTag",
            "outputs": [],
            "stateMutability": "nonpayable",
            "type": "function"
        },
        {
            "inputs": [
                {
                    "internalType": "string",
                    "name": "_tag",
                    "type": "string"
                }
            ],
            "name": "findHost",
            "outputs": [
                {
                    "components": [
                        {
                            "internalType": "string",
                            "name": "tag",
                            "type": "string"
                        },
                        {
                            "internalType": "uint256",
                            "name": "fee",
                            "type": "uint256"
                        },
                        {
                            "internalType": "uint256",
                            "name": "members",
                            "type": "uint256"
                        },
                        {
                            "internalType": "address",
                            "name": "addr",
                            "type": "address"
                        }
                    ],
                    "internalType": "struct Blockparty.Host",
                    "name": "_host",
                    "type": "tuple"
                }
            ],
            "stateMutability": "view",
            "type": "function"
        },
        {
            "inputs": [],
            "name": "findMe",
            "outputs": [
                {
                    "components": [
                        {
                            "internalType": "string",
                            "name": "tag",
                            "type": "string"
                        },
                        {
                            "internalType": "uint256",
                            "name": "fee",
                            "type": "uint256"
                        },
                        {
                            "internalType": "uint256",
                            "name": "members",
                            "type": "uint256"
                        },
                        {
                            "internalType": "address",
                            "name": "addr",
                            "type": "address"
                        }
                    ],
                    "internalType": "struct Blockparty.Host",
                    "name": "_me",
                    "type": "tuple"
                }
            ],
            "stateMutability": "view",
            "type": "function"
        },
        {
            "inputs": [],
            "name": "hostCount",
            "outputs": [
                {
                    "internalType": "uint256",
                    "name": "",
                    "type": "uint256"
                }
            ],
            "stateMutability": "view",
            "type": "function"
        },
        {
            "inputs": [
                {
                    "internalType": "string",
                    "name": "_tag",
                    "type": "string"
                },
                {
                    "internalType": "uint256",
                    "name": "_fee",
                    "type": "uint256"
                }
            ],
            "name": "joinParty",
            "outputs": [],
            "stateMutability": "nonpayable",
            "type": "function"
        },
        {
            "inputs": [],
            "name": "membershipsCount",
            "outputs": [
                {
                    "internalType": "uint256",
                    "name": "",
                    "type": "uint256"
                }
            ],
            "stateMutability": "view",
            "type": "function"
        }
    ],
    "bytecode": "0x608060405234801561001057600080fd5b506118dc806100206000396000f3fe608060405234801561001057600080fd5b50600436106100935760003560e01c80636fa8cf33116100665780636fa8cf331461010a578063919c645c14610128578063a88e7d0414610158578063e2a8baca14610176578063fa46e75c1461019457610093565b80633d94d441146100985780634c5b94be146100b45780636a1db1bf146100d05780636c065548146100ec575b600080fd5b6100b260048036038101906100ad9190610f48565b6101b0565b005b6100ce60048036038101906100c99190610f48565b61048e565b005b6100ea60048036038101906100e59190610fa4565b61083a565b005b6100f4610891565b6040516101019190610fe0565b60405180910390f35b610112610897565b60405161011f9190610fe0565b60405180910390f35b610142600480360381019061013d9190610ffb565b61089d565b60405161014f9190611176565b60405180910390f35b610160610a30565b60405161016d9190611176565b60405180910390f35b61017e610b83565b60405161018b9190610fe0565b60405180910390f35b6101ae60048036038101906101a99190610ffb565b610b89565b005b600073ffffffffffffffffffffffffffffffffffffffff166005836040516101d891906111d4565b908152602001604051809103902060009054906101000a900473ffffffffffffffffffffffffffffffffffffffff1673ffffffffffffffffffffffffffffffffffffffff161461025d576040517f08c379a000000000000000000000000000000000000000000000000000000000815260040161025490611248565b60405180910390fd5b6000600660003373ffffffffffffffffffffffffffffffffffffffff1673ffffffffffffffffffffffffffffffffffffffff16815260200190815260200160002060010154146102e2576040517f08c379a00000000000000000000000000000000000000000000000000000000081526004016102d9906112b4565b60405180910390fd5b600081116102ef57600080fd5b60008081548092919061030190611303565b91905055506040518060800160405280838152602001828152602001600081526020013373ffffffffffffffffffffffffffffffffffffffff16815250600660003373ffffffffffffffffffffffffffffffffffffffff1673ffffffffffffffffffffffffffffffffffffffff16815260200190815260200160002060008201518160000190816103929190611557565b50602082015181600101556040820151816002015560608201518160030160006101000a81548173ffffffffffffffffffffffffffffffffffffffff021916908373ffffffffffffffffffffffffffffffffffffffff1602179055509050503360058360405161040291906111d4565b908152602001604051809103902060006101000a81548173ffffffffffffffffffffffffffffffffffffffff021916908373ffffffffffffffffffffffffffffffffffffffff1602179055507f21865c7f3496e60152de1f48ba24ab67b45f2aa1241e189652087220b3b4ad74828260006040516104829392919061169d565b60405180910390a15050565b6000600660006005856040516104a491906111d4565b908152602001604051809103902060009054906101000a900473ffffffffffffffffffffffffffffffffffffffff1673ffffffffffffffffffffffffffffffffffffffff1673ffffffffffffffffffffffffffffffffffffffff1681526020019081526020016000206040518060800160405290816000820180546105289061137a565b80601f01602080910402602001604051908101604052809291908181526020018280546105549061137a565b80156105a15780601f10610576576101008083540402835291602001916105a1565b820191906000526020600020905b81548152906001019060200180831161058457829003601f168201915b5050505050815260200160018201548152602001600282015481526020016003820160009054906101000a900473ffffffffffffffffffffffffffffffffffffffff1673ffffffffffffffffffffffffffffffffffffffff1673ffffffffffffffffffffffffffffffffffffffff16815250509050610624816000015184610c96565b610663576040517f08c379a000000000000000000000000000000000000000000000000000000000815260040161065a90611727565b60405180910390fd5b3373ffffffffffffffffffffffffffffffffffffffff16816060015173ffffffffffffffffffffffffffffffffffffffff16036106d5576040517f08c379a00000000000000000000000000000000000000000000000000000000081526004016106cc90611793565b60405180910390fd5b806020015182101561071c576040517f08c379a0000000000000000000000000000000000000000000000000000000008152600401610713906117ff565b60405180910390fd5b6001600081548092919061072f90611303565b919050555060405180606001604052806001548152602001838152602001826060015173ffffffffffffffffffffffffffffffffffffffff16815250600360006001548152602001908152602001600020600082015181600001556020820151816001015560408201518160020160006101000a81548173ffffffffffffffffffffffffffffffffffffffff021916908373ffffffffffffffffffffffffffffffffffffffff1602179055509050508060400180518091906107f090611303565b815250507ff9018e13fa6b2b925ddbaff85b6b53b029d283b10a7622e940eafa37055be7de60015483836060015160405161082d93929190611840565b60405180910390a1505050565b6000811161084757600080fd5b80600660003373ffffffffffffffffffffffffffffffffffffffff1673ffffffffffffffffffffffffffffffffffffffff1681526020019081526020016000206001018190555050565b60005481565b60025481565b6108a5610d7a565b600660006005846040516108b991906111d4565b908152602001604051809103902060009054906101000a900473ffffffffffffffffffffffffffffffffffffffff1673ffffffffffffffffffffffffffffffffffffffff1673ffffffffffffffffffffffffffffffffffffffff16815260200190815260200160002060405180608001604052908160008201805461093d9061137a565b80601f01602080910402602001604051908101604052809291908181526020018280546109699061137a565b80156109b65780601f1061098b576101008083540402835291602001916109b6565b820191906000526020600020905b81548152906001019060200180831161099957829003601f168201915b5050505050815260200160018201548152602001600282015481526020016003820160009054906101000a900473ffffffffffffffffffffffffffffffffffffffff1673ffffffffffffffffffffffffffffffffffffffff1673ffffffffffffffffffffffffffffffffffffffff16815250509050919050565b610a38610d7a565b600660003373ffffffffffffffffffffffffffffffffffffffff1673ffffffffffffffffffffffffffffffffffffffff168152602001908152602001600020604051806080016040529081600082018054610a929061137a565b80601f0160208091040260200160405190810160405280929190818152602001828054610abe9061137a565b8015610b0b5780601f10610ae057610100808354040283529160200191610b0b565b820191906000526020600020905b815481529060010190602001808311610aee57829003601f168201915b5050505050815260200160018201548152602001600282015481526020016003820160009054906101000a900473ffffffffffffffffffffffffffffffffffffffff1673ffffffffffffffffffffffffffffffffffffffff1673ffffffffffffffffffffffffffffffffffffffff1681525050905090565b60015481565b600073ffffffffffffffffffffffffffffffffffffffff16600582604051610bb191906111d4565b908152602001604051809103902060009054906101000a900473ffffffffffffffffffffffffffffffffffffffff1673ffffffffffffffffffffffffffffffffffffffff1614610c36576040517f08c379a0000000000000000000000000000000000000000000000000000000008152600401610c2d90611248565b60405180910390fd5b33600582604051610c4791906111d4565b908152602001604051809103902060006101000a81548173ffffffffffffffffffffffffffffffffffffffff021916908373ffffffffffffffffffffffffffffffffffffffff16021790555050565b600080839050600083905060008251905081518114610cbb5760009350505050610d74565b60005b81811015610d6b57828181518110610cd957610cd8611877565b5b602001015160f81c60f81b7effffffffffffffffffffffffffffffffffffffffffffffffffffffffffffff1916848281518110610d1957610d18611877565b5b602001015160f81c60f81b7effffffffffffffffffffffffffffffffffffffffffffffffffffffffffffff191614610d58576000945050505050610d74565b8080610d6390611303565b915050610cbe565b50600193505050505b92915050565b6040518060800160405280606081526020016000815260200160008152602001600073ffffffffffffffffffffffffffffffffffffffff1681525090565b6000604051905090565b600080fd5b600080fd5b600080fd5b600080fd5b6000601f19601f8301169050919050565b7f4e487b7100000000000000000000000000000000000000000000000000000000600052604160045260246000fd5b610e1f82610dd6565b810181811067ffffffffffffffff82111715610e3e57610e3d610de7565b5b80604052505050565b6000610e51610db8565b9050610e5d8282610e16565b919050565b600067ffffffffffffffff821115610e7d57610e7c610de7565b5b610e8682610dd6565b9050602081019050919050565b82818337600083830152505050565b6000610eb5610eb084610e62565b610e47565b905082815260208101848484011115610ed157610ed0610dd1565b5b610edc848285610e93565b509392505050565b600082601f830112610ef957610ef8610dcc565b5b8135610f09848260208601610ea2565b91505092915050565b6000819050919050565b610f2581610f12565b8114610f3057600080fd5b50565b600081359050610f4281610f1c565b92915050565b60008060408385031215610f5f57610f5e610dc2565b5b600083013567ffffffffffffffff811115610f7d57610f7c610dc7565b5b610f8985828601610ee4565b9250506020610f9a85828601610f33565b9150509250929050565b600060208284031215610fba57610fb9610dc2565b5b6000610fc884828501610f33565b91505092915050565b610fda81610f12565b82525050565b6000602082019050610ff56000830184610fd1565b92915050565b60006020828403121561101157611010610dc2565b5b600082013567ffffffffffffffff81111561102f5761102e610dc7565b5b61103b84828501610ee4565b91505092915050565b600081519050919050565b600082825260208201905092915050565b60005b8381101561107e578082015181840152602081019050611063565b60008484015250505050565b600061109582611044565b61109f818561104f565b93506110af818560208601611060565b6110b881610dd6565b840191505092915050565b6110cc81610f12565b82525050565b600073ffffffffffffffffffffffffffffffffffffffff82169050919050565b60006110fd826110d2565b9050919050565b61110d816110f2565b82525050565b60006080830160008301518482036000860152611130828261108a565b915050602083015161114560208601826110c3565b50604083015161115860408601826110c3565b50606083015161116b6060860182611104565b508091505092915050565b600060208201905081810360008301526111908184611113565b905092915050565b600081905092915050565b60006111ae82611044565b6111b88185611198565b93506111c8818560208601611060565b80840191505092915050565b60006111e082846111a3565b915081905092915050565b600082825260208201905092915050565b7f74616720616c7265616479206578697374730000000000000000000000000000600082015250565b60006112326012836111eb565b915061123d826111fc565b602082019050919050565b6000602082019050818103600083015261126181611225565b9050919050565b7f796f7520616c7265616479206861766520616e206163636f756e740000000000600082015250565b600061129e601b836111eb565b91506112a982611268565b602082019050919050565b600060208201905081810360008301526112cd81611291565b9050919050565b7f4e487b7100000000000000000000000000000000000000000000000000000000600052601160045260246000fd5b600061130e82610f12565b91507fffffffffffffffffffffffffffffffffffffffffffffffffffffffffffffffff82036113405761133f6112d4565b5b600182019050919050565b7f4e487b7100000000000000000000000000000000000000000000000000000000600052602260045260246000fd5b6000600282049050600182168061139257607f821691505b6020821081036113a5576113a461134b565b5b50919050565b60008190508160005260206000209050919050565b60006020601f8301049050919050565b600082821b905092915050565b60006008830261140d7fffffffffffffffffffffffffffffffffffffffffffffffffffffffffffffffff826113d0565b61141786836113d0565b95508019841693508086168417925050509392505050565b6000819050919050565b600061145461144f61144a84610f12565b61142f565b610f12565b9050919050565b6000819050919050565b61146e83611439565b61148261147a8261145b565b8484546113dd565b825550505050565b600090565b61149761148a565b6114a2818484611465565b505050565b5b818110156114c6576114bb60008261148f565b6001810190506114a8565b5050565b601f82111561150b576114dc816113ab565b6114e5846113c0565b810160208510156114f4578190505b611508611500856113c0565b8301826114a7565b50505b505050565b600082821c905092915050565b600061152e60001984600802611510565b1980831691505092915050565b6000611547838361151d565b9150826002028217905092915050565b61156082611044565b67ffffffffffffffff81111561157957611578610de7565b5b611583825461137a565b61158e8282856114ca565b600060209050601f8311600181146115c157600084156115af578287015190505b6115b9858261153b565b865550611621565b601f1984166115cf866113ab565b60005b828110156115f7578489015182556001820191506020850194506020810190506115d2565b868310156116145784890151611610601f89168261151d565b8355505b6001600288020188555050505b505050505050565b600061163482611044565b61163e81856111eb565b935061164e818560208601611060565b61165781610dd6565b840191505092915050565b6000819050919050565b600061168761168261167d84611662565b61142f565b610f12565b9050919050565b6116978161166c565b82525050565b600060608201905081810360008301526116b78186611629565b90506116c66020830185610fd1565b6116d3604083018461168e565b949350505050565b7f686f737420646f6573206e6f7420657869737400000000000000000000000000600082015250565b60006117116013836111eb565b915061171c826116db565b602082019050919050565b6000602082019050818103600083015261174081611704565b9050919050565b7f63616e6e6f74206a6f696e20796f7572206f776e20626c6f636b207061727479600082015250565b600061177d6020836111eb565b915061178882611747565b602082019050919050565b600060208201905081810360008301526117ac81611770565b9050919050565b7f696e73756666696369656e7420616d6f756e7400000000000000000000000000600082015250565b60006117e96013836111eb565b91506117f4826117b3565b602082019050919050565b60006020820190508181036000830152611818816117dc565b9050919050565b600061182a826110d2565b9050919050565b61183a8161181f565b82525050565b60006060820190506118556000830186610fd1565b6118626020830185610fd1565b61186f6040830184611831565b949350505050565b7f4e487b7100000000000000000000000000000000000000000000000000000000600052603260045260246000fdfea2646970667358221220d16d46e04e0616754cbac246e328151c059b08515fcd1db124dfb4c695dc7c8664736f6c63430008120033",
    "linkReferences": {},
    "deployedLinkReferences": {}
}